:100000000C940E030C942B030C942B030C94CF191B
:100010000C942B030C942B030C942B030C942B03A8
:100020000C942B030C942B030C9477200C944B21F1
:100030000C94AE1B0C942B030C942B030C942B03ED
:100040000C942B030C942B030C942B030C942B0378
:100050000C942B030C94511C0C942B030C942B0329
:100060000C942B030C942B030C942B030C942B0358
:100070000C942B030C942B030C942B030C942B0348
:100080000C942B030C942B030C942B030C942B0338
:100090000C942B030C942B030C942B030C942B0328
:1000A0000C942B030C942B030C942B0329001E009F
:1000B0001F002000210022002B0014001A0008005D
:1000C00015001700E00004001600070009000A00F0
:1000D000E1001D001B000600190005000000E30000
:1000E000E20022522C0044522D0027002600250059
:1000F000240023002A00130012000C0018001C002A
:10010000340033000F000E000D000B0028003800F3
:1001100037003600100011000000E700E600215211
:10012000E50048003A003B003C003D003E003F0037
:1001300001003502310236023702350001001E028D
:100140002F002602270231000100010020022402B4
:1001500021022202000001000100235201000100DF
:1001600045004400430042004100400001002502D8
:100170002E002E022D002D0201001F023000300241
:100180002F02230201000100010001000100010013
:100190000000010001000100010001000100010058
:1001A000010001000100010001005008510852083F
:1001B0004F08010001001D011B010601190101008A
:1001C0000100010001000100010001000000010028
:1001D000010001000100010001000100480047008A
:1001E00046000100010001004F0052005100500084
:1001F00001002B002A004C002800480001000100EB
:100200004D004B004E004A00000001000100235247
:1002100001000100000000000000000000000000DC
:1002200000000000000000000000000000000000CE
:1002300000000000000000000000000000000000BE
:100240000000000000000100010001000100007C2E
:10025000000000000000000000000000000000009E
:1002600026002500240000000000000023002200DA
:10027000210000000000000020001F001E002700D9
:1002800000000100010001000100000029001E0023
:100290001F002000210022002B0014001A0008007B
:1002A00015001700E00004001600070009000A000E
:1002B000E1001D001B000600190005000000E3001E
:1002C000E20026522C0040526552270026002500ED
:1002D000240023002A00130012000C0018001C0048
:1002E000340033000F000E000D000B003800370003
:1002F00037003600100011000000E700E6000100A2
:10030000E5004800010001000100010001000100BA
:1003100001000100010001000100010001000100D5
:1003200001000100010001002C000100010001009A
:10033000010001000000010001000100E1000100D6
:1003400001000100010001000100010001000100A5
:100350000100010001000100010001000100010095
:100360000100010001000100010001000100010085
:100370000000010001000100010001000100230054
:10038000240025002600270001001C0018000C0096
:100390001200130001000B000D000E000F003300CF
:1003A0000100110010003600370038000000010085
:1003B0000100010001000100010001000100010035
:1003C0000100010001000100010001000100010025
:1003D0000100010001000100010001000100010015
:1003E0000100010001000100000001000100010006
:1003F00001000100000000000000000000000000FB
:1004000000000000000000000000000000000000EC
:1004100000000000000000000000000000000000DC
:1004200000000000000000000000010000000000CB
:1004300000000000000000000000000000000000BC
:1004400000000000000000000000000000000000AC
:10045000000000000000000000000000000000009C
:10046000000000000000000000000000000000008C
:10047000000000000000000000000000000000007C
:10048000000000000000000000000000000000006C
:10049000000000000000000000000000000000005C
:1004A000000001000000000000000000000000004B
:1004B000000000000000000000000000000000003C
:1004C000000000000000000000000000000000002C
:1004D000000000000000000000000000000000001C
:1004E000000000000000000000000000000000000C
:1004F00000000000000000000000000000000000FC
:1005000000000000000000000000000000000000EB
:1005100000000000000000000000010000000000DA
:1005200000000000000000000000000000000000CB
:1005300000000000000000000000000000000000BB
:1005400000000000000000000000000000000000AB
:1005500000000000000000000000000000AE00AF3E
:1005600000DA0281FFD9F1DB20A4A62EAF00A0C0E3
:10057000D30000A1C8D30000AED580A81F408D14C1
:1005800020000E034C0069006C0079003500380033
:10059000000010036C0069006C00690075006D00BC
:1005A000730000000403090409022200010100A0F5
:1005B000FA090400000103010100092111010001F1
:1005C000224000070581030800011201000200001B
:1005D0000008D8042DEB0001010200010501090605
:1005E000A101050719E029E7150025019508750106
:1005F00081029501750881010507190029FF150081
:1006000026FF009506750881000508190129059542
:100610000575019102950175039101C011241FBE5A
:10062000CFEFDAE0DEBFCDBF11E0A0E0B1E0ECEF4C
:10063000F7E402C005900D92A034B107D9F724E089
:10064000A0E4B1E001C01D92A936B207E1F70E9413
:100650004A140C94BD230C9400008A30B8F46A301C
:10066000A8F4463098F450E096E0699F400D511D83
:100670001124FA019CE3899FE00DF11D1124EE0F76
:10068000FF1FE455FF4F85919491089581E090E01C
:1006900008950E942D03089581E008950E944C035F
:1006A000089581E008950E944C0308950E94530329
:1006B000089508950E9459030895A6E0B0E0E3E686
:1006C000F3E00C942D2349835A839E833091470194
:1006D00089819A8131111AC03E81332399F02223F6
:1006E00089F00E947B08182F682F89819A810E94C7
:1006F000570869817A81812F0E94440F2696E3E092
:100700000C9449230E946908182FF3CF0E947B089C
:1007100069817A81F1CFFC01262F4081518162816C
:100720007381848195810E945D030895CF93DF9347
:10073000EC0161E00E948B03BE010E944E03DF9139
:10074000CF910895CF93DF93EC0160E00E948B037B
:10075000BE010E945A03DF91CF91089508950E942F
:100760002C070E94AE032FEF84E39CE021508040D1
:100770009040E1F700C0000008950E94AF030E947E
:10078000751C08950E94AF030E94861C08950F9364
:100790001F93CF93DF938C0161E00E948B03EC01E8
:1007A000B8010E945603811106C080E0DF91CF910D
:1007B0001F910F910895B801CE010E94FF17882361
:1007C000A1F3B801CE010E949516882371F3B801F8
:1007D000CE010E947117882341F3F8018581882397
:1007E00061F0C330FCE7DF07E9F058F4C115ECE72E
:1007F000DE07A9F0C130DC47B9F0C8010E945103FF
:10080000D5CFCB358CE7D807A9F0CC35ECE7DE07A0
:1008100071F0CA35DC4789F70E94B10CEECF0E9417
:10082000BD03C3CF0E94B90C0E94C203BECF0E9479
:10083000A70CE3CF0E94B50CE0CF0E948B1B0E9457
:1008400046040E943D1608950E944A040E94901B8F
:100850000895089581E008950895CF93DF93D82FE8
:100860000E942A04C82F882319F08D2F0E942C047F
:100870008C2FDF91CF9108950895CF93C82F0E94B8
:1008800029048C2F0E942D04CF91089580E00E94AE
:100890003D0408950E94F51A0E943D040895CF93E7
:1008A0000E94F51AC82F809142018C1779F0C093ED
:1008B00042010E941A1C609343017093440180938B
:1008C0004501909346018C2F0E943D04CF910895DD
:1008D000ADE0B0E0EEE6F4E00C942E2348875987B3
:1008E0006A877B878C879D8791110E94DF0B1F820F
:1008F00086E0FE013896DE01119601900D928A95F0
:10090000E1F78D8181110DC029813A814B815C8194
:100910006D817E818F810E94120B2D96E2E00C94F6
:100920004A23CE0101960E9496038111EDCFF5CFA7
:10093000FC012481213021F4808191810E94AD0845
:100940000895CF93C82F8823B9F08CEF8C0F813A8C
:10095000A8F46C2F80910001909101010E94261B48
:10096000882329F08C2F0E949F0B0E94180C8C2F3B
:100970000E94970B0E94180CCF91089580E28C0F73
:100980008830D0F7C77081E001C0880FCA95EAF7B8
:100990000E94C20BEFCF882341F09CEF980F913A51
:1009A00028F40E949F0B0E94180C089590E2980F63
:1009B0009830D8F7877091E001C0990F8A95EAF7CF
:1009C000892F0E94C80BEFCF1F93CF93DF93182F6F
:1009D000EB010E94A104209739F4812F0E94CB04DF
:1009E000DF91CF911F9108958FE99FE00197F1F773
:1009F00000C000002197EFCF70E060E0893311F470
:100A000060E570E00E94E4040895882321F00E94CC
:100A1000C20B0E94180C0895882321F00E94C80B75
:100A20000E94180C0895B0E0A0E0E9E1F5E00C9414
:100A300027236C01D62FC72FFC0115810681029553
:100A40000F700E94B80BE82E8823E9F0E12E1123E5
:100A5000D1F08C2F807F803451F080E28D0F883070
:100A6000F8F0011104C08C2F807E8032C9F0809193
:100A7000390282FF15C082E00E947B0C0E94B80BF5
:100A800091E0E82EE926BC2EB2949FE0B922FBE06B
:100A9000FB15B8F1EB2DF0E0E154FC4D0C9418235C
:100AA000E12CF1CF0C2F0F70C07F11F00295007F69
:100AB000112399F0002359F080E28D0F883010F057
:100AC000D11107C0802F0E94C20B0E94180C8D2FDD
:100AD0005AC0802F0E94D20BF8CF8D2F0E94CB04DA
:100AE000002379F080E28D0F883010F0D11104C01E
:100AF000802F0E94C80B03C0802F0E94D80B0E9439
:100B0000180CEB2DE850FF0B349720F40E94F51AD7
:100B10000E943D04EE2089F00E94B40B80FD0DC0C0
:100B2000F60115820E94AE0B0E94B507C6010E9415
:100B3000FF060E94AE0B0E94C507CDB7DEB7E9E005
:100B40000C9443232C2F2F70F22EC07FC03219F04B
:100B5000F29480EFF822DD2341F0D130D1F111235E
:100B600009F444C00023F1F0B2CF8091390282FD34
:100B700015C0112359F0FF2029F08F2D0E94C20BC0
:100B80000E94180C80E00E94A104BBCF80E00E946C
:100B9000CB04FF2009F4B5CF8F2DABCF112369F023
:100BA000011104C08F2D0E940505ABCF013009F063
:100BB000A8CF8F2D0E94F60BA4CF0111A2CF8F2DAD
:100BC0000E940C058F2D0E94020C8F2D0E94E60BB7
:100BD00098CF112321F0063008F093CFE3CF0530F2
:100BE00008F08FCF8F2D0E940C058BCF0023D1F3FF
:100BF000D93349F43FEF87EE93E031508040904085
:100C0000E1F700C000008D2F0E94CB047ACF8C2F1B
:100C10008370A1F5111175CF4D2F42954695477000
:100C2000440F440F2D2F2F7030E0042E02C0220FEE
:100C3000331F0A94E2F790E080E0D4FF09C08FE010
:100C400090E002C0880F991F4A95E2F78095909531
:100C5000C695C695C370822B932BC23049F058F4C9
:100C6000C13019F00E9485074CCF0E947C0749CF04
:100C70000E948E0746CF0E94790743CF86951123A5
:100C800011F08C2F8170882309F43BCF4D2F4295B2
:100C900046954770440F440F2D2F2F7030E0042EDF
:100CA00002C0220F331F0A94E2F790E080E0D4FFE5
:100CB00009C08FE090E002C0880F991F4A95E2F7C3
:100CC00080959095C695C695C370822B932BC230A4
:100CD00049F058F4C13019F00E94F00712CF0E9479
:100CE000E7070FCF0E94F9070CCF0E949D0709CF9D
:100CF000CF70112329F08C2F0E94B5078D2F53CF71
:100D00008D2F0E940C058C2F0E94C507FACED23F72
:100D100041F160F4D03FB9F0D13F81F0112309F4E3
:100D200046C00111D4CE8C2F8F711FC0D33F01F16B
:100D3000D43FA1F78091390282FD24C08C2F8F719E
:100D4000112311F312C0112341F0053008F0D9CE60
:100D50008C2F8F710E94D707D4CE063008F0D1CEE9
:100D6000F7CF8C2F8F711111CFCF0E94B507C9CE4D
:100D7000112329F08C2F8F710E94A907C2CE0E94E7
:100D8000A407BFCE112349F0CF718C2F0E94B50765
:100D900063E08C2F0E945D0CB4CE81E00E947B0C3E
:100DA000023008F4AECE82E00E947B0CAACE002373
:100DB00059F0D93309F027CFEFEFF7EE23E0E150F8
:100DC000F0402040E1F71DCF8C2F8F719DCF0F9306
:100DD0001F93CF93DF93EC01688179818D810E940D
:100DE000B8088C010E9402080E947807B801CE0161
:100DF0000E941305DF91CF911F910F910895CF931A
:100E0000DF93EC018C81882399F0CE010E94C70307
:100E1000811111C00E94B80B882351F08D81882365
:100E200039F08091390282FF03C082E00E947B0C7E
:100E3000DF91CF910895CE010E94E706CE010E9476
:100E4000A203F6CF0E94DF0B0E94180C08950E94A7
:100E5000A70B0E94220708950E94CF0B0E9427072C
:100E6000089592959F70963091F058F4925F9F701C
:100E7000923058F4803F19F030F4883E30F481E02D
:100E800008959A5FF4CF843FD1F380E00895883EBF
:100E9000B0F3813FD1F7F3CFFC012481222339F055
:100EA000808191810E94AD080E943107089580E001
:100EB0000895A6E0B0E0EFE5F7E00C942E23269627
:100EC000E2E00C944A23A7E0B0E0E9E6F7E00C94F6
:100ED0002E232796E2E00C944A2308950E946D0782
:100EE00008950E946E0790936B0180936A010895A4
:100EF00008950E947107089520916A0130916B0155
:100F0000822B932B0E947107089520916A013091E2
:100F10006B01822393230E947107089520916A0137
:100F200030916B01822793270E94710708950E94D8
:100F30006D0708950E94970708950E949A0790935D
:100F4000690180936801089590E080E00E949D0708
:100F5000089521E030E0A90102C0440F551F8A9591
:100F6000E2F7CA010E949D07089521E030E002C027
:100F7000220F331F8A95E2F78091680190916901F1
:100F8000822B932B0E949D07089521E030E002C040
:100F9000220F331F8A95E2F72095309580916801E2
:100FA00090916901822393230E949D07089521E077
:100FB00030E002C0220F331F8A95E2F7809168016A
:100FC00090916901822793270E949D07089520919F
:100FD000680130916901822B932B0E949D0708952F
:100FE0002091680130916901822393230E949D071B
:100FF00008952091680130916901822793270E940A
:101000009D0708950895262F277091E001C0990F3C
:101010002A95EAF723E0769567952A95E1F7660F1A
:10102000771F660F771FFA01E60FF71F50E040E0C9
:10103000682F70E08191DF0111979B01042E02C09F
:10104000369527950A94E2F72170219528272923C0
:1010500028272C934F5F5F4F4430510559F708956F
:10106000A82FA77023E0969587952A95E1F7880F1A
:10107000991F880F991FFB01E80FF91F50E040E00E
:1010800080E0219130E00A2E02C0369527950A941F
:10109000E2F721703327042E01C0220F0A94EAF7E9
:1010A000822B4F5F5F4F4430510559F70895262F2B
:1010B0009A3070F4863060F4682F70E086E0989F74
:1010C000600D711D112448E451E0822F0E94030835
:1010D0000895292F9A3068F4863058F490E068E437
:1010E00071E036E0239F800D911D11240E9430088D
:1010F000089580E00895B0E0A0E0E1E8F8E00C9405
:1011000027237C01009168011091690180916A0197
:1011100090916B01082B192BCFE0D0E0CC24C39425
:10112000D12CBC2EC6010C2E02C0880F991F0A9428
:10113000E2F780239123892B49F4219790F7B12C72
:101140008B2DCDB7DEB7E9E00C944323B7018C2F8C
:101150000E94500F019789F3F3CFCF93DF93EC01F7
:101160000E947B08BE010E94500FDF91CF9108952D
:101170001F93CF93DF93EB0190914701992339F0AF
:10118000CB010E94AD08DF91CF911F910895882374
:1011900069F0CB010E947B08182F682FCE010E94B6
:1011A0005708BE01812F0E94500FEDCFCB010E9446
:1011B0006908182FF6CF1F93CF93DF93C0916C016E
:1011C00017E080916D018C1304C0DF91CF911F91C6
:1011D0000895D0E01C9FF0011D9FF00D1124E259ED
:1011E000FE4F2081318142815381648175818681E6
:1011F0000E9463072196C770E4CF2091A601309129
:10120000A7014091A8015091A9016091AA01709194
:10121000AB018091AC010E9463070895CF93DF93E7
:101220008091AC01807F09F04DC08091AB01882393
:1012300009F448C0E0916C0150916D01C091A70183
:10124000D091A6016091A8017091A90147E05E17B5
:10125000C9F18E2F90E0E49FF0011124E259FE4F76
:101260002481222391F1489FF001499FF00D112420
:10127000DF01A259BE4F11962C9111972C1325C056
:101280002C912D1322C015962C91159721111DC05C
:1012900012962D913C91261B370B283C3105A8F462
:1012A0008091AC018F7080618093AC01EC58FE4F4F
:1012B00080818F708061808386EA91E00E94FF06C2
:1012C0000E94DB08DF91CF910895FC013196E77011
:1012D000BECF482F20916C0190916D0157E02913EA
:1012E00002C080E0089530E0529FF001539FF00D5E
:1012F0001124E259FE4F8181681306C08081481392
:1013000003C085818111EECF2F5F3F4F2770E7CF5C
:10131000A4E1B0E0EEE8F9E00C9424238C0186E02F
:10132000F801DE011F9601900D928A95E1F7F80110
:101330008481E58096EAA92E91E0B92E9091AA01C8
:1013400091111FC08823D1F0EE20A9F0C8010E949E
:101350004C07F82E882379F087E0F801D501019039
:101360000D928A95E1F7C5010E9498040E940E092A
:101370000E94FD085FC0C8010E94FF06FF24F3948D
:1013800059C0C080D18082809380F090AB012091C1
:10139000A8013091A901A401421B530BFF2009F4BD
:1013A000F9C0483C510508F0A7C0882309F442C0A1
:1013B0009091A7018091AC01282F207F09F05CC09B
:1013C0009D1116C09091A601C91212C0E1104EC025
:1013D0008F7080618093AC010E94FD0886EA91E0E5
:1013E0000E94FF068091AC01F8018683F12C22C097
:1013F000E1103CC06D2D8C2D0E9469096D2D8C2D46
:101400000E946909E82E8111F1CFCF86D88A8F8595
:1014100098890E94AD08292F22952F70243078F4E6
:101420009F702230A8F09923B9F0F8019681907F3F
:1014300099F4FE2C8F2D6496ECE00C9440232A5FE7
:101440002F70223068F0C8010E94FF06EF2CF1CF08
:10145000992311F0882369F3805E883050F3F3CF2D
:10146000803F38F3815F833070F7E3CF8091AC0128
:1014700081608093AC01BACF9D1113C09091A601F9
:10148000C9120FC0E1100DC08683C8010E94FF067B
:1014900087E0F801A6EAB1E001900D928A95E1F7A4
:1014A00067CFC8010E944C07882309F464CFEE205F
:1014B00009F461CF8091AC01803288F02091A601BF
:1014C0003091A701398728879B868A869091AA0147
:1014D0009C871D868E87CE0108960E94FF0687E0B6
:1014E000F801A6EAB1E001900D928A95E1F70E9419
:1014F0000E090E94FD0842CF9091AC01292F207F58
:10150000A1F4682D9A8A898AA6017A899E2D0E9463
:10151000590786EA91E00E94FF0687E0F5011192E3
:101520008A95E9F70E94FD0861CF882309F482CFEC
:101530008091A7018D1110C08091A601C8120CC026
:10154000E1100AC09683C8010E94FF0687E0F501FA
:1015500011928A95E9F76ECFC8010E944C07882343
:1015600009F409CFEE2009F406CF8091AC01803256
:1015700008F4B5CF2091A6013091A7013A832983C1
:101580009C828B829091AA019D831E828F83CE01C3
:101590000196A3CF483C5105B8F5882309F4EECE57
:1015A000FE2CEE2009F4E7CE8091A7018D111EC01C
:1015B0008091A601C8121AC08091AC0180FD0DC0B7
:1015C000982F907F51F08683903F09F45ECF982F3B
:1015D000907F905F8F70892B57CF87E0F801A6EA44
:1015E000B1E001900D928A95E1F724CFC8010E94E5
:1015F0004C07811174CF8091AC0181608093AC0164
:10160000C8010E94FF0616CF682D9A8A898AA60112
:101610007A899E2D0E94590787E0F50111928A95DB
:10162000E9F7A6CEAEE0B0E0E8E1FBE00C942D23B4
:10163000288739874A875B876C877D878E87CE01AD
:1016400008960E9488098823B1F06C85662341F0D2
:10165000288539854A855B857D858E850E9463074F
:1016600017E080916C0190916D0189133DC02E9619
:10167000E3E00C94492387E0FE013896DE011196E1
:1016800001900D928A95E1F78C85882349F320918A
:101690006D0130E0C90101968770992740916C0176
:1016A0004817190699F097E0929FD001939FB00DCB
:1016B0001124A259BE4FFE01319601900D929A95C8
:1016C000E1F780936D010E94DB08CACF0E942C07CE
:1016D00010926D0110926C0187E0E6EAF1E0DF0103
:1016E0001D928A95E9F7BCCF819FC00111248259D0
:1016F0009E4F0E948809882309F4B9CFE0916C01BC
:101700001E9FF0011124E259FE4F20813181428158
:1017100053816481758186810E94630780916C0189
:1017200090E001968770992780936C019ACF682F7B
:1017300080910001909101010E945C1B0895682F27
:1017400080910001909101010E945F1B089580919A
:101750000001909101010E94621B08958091B501E2
:1017600086958695869508958091B5018770089530
:101770009091B501977081E009F480E0089580911F
:10178000C10108959091C101892B8093C1010895F1
:1017900080959091C10198239093C1010895109272
:1017A000C10108959091C001892B8093C0010895D3
:1017B00080959091C00198239093C0010895109254
:1017C000C001089508950E94E20B08959091B6011A
:1017D000292F282331F0809589238093B6010E9418
:1017E000E30B089508950E94F20B08959091B701BC
:1017F000292F2823281729F0982B9093B7010E94AE
:10180000F30B08959091B701292F282331F080958B
:1018100089238093B7010E94F30B08958091B7014B
:10182000882329F01092B70180E00E94F30B0895FD
:10183000CF93DF93E0910001F09101018091C1010C
:101840008083E0910001F091010180819091C001BD
:10185000892B80839091B701992381F0E091000159
:10186000F09101018081892B80838091000190910A
:1018700001010E94141B81110E940E0CC0910001F5
:10188000D091010148E050E06DEA71E0CE010E9484
:101890005523892B59F088E0FE01ADEAB1E00190B3
:1018A0000D928A95E1F7CE010E94091BDF91CF913D
:1018B000089508950E94590C08959091390292FF5D
:1018C00011C098E0899F90011124622B6093B501AB
:1018D0000E94B5078091B5018695869586950E94F0
:1018E0005A0C08950E94B50708951092B50180E042
:1018F0000E945A0C08959091B50180958923809398
:10190000B501282F277069F4891759F09091390291
:1019100092FF07C08695869586950E94C5070E940E
:10192000750C08959091390292FB222720F928170F
:1019300069F080FB92F9909339028091380290917E
:1019400039020E94DA0C82E00E947B0C089580919B
:10195000390282FB882780F991E089270E94920C46
:10196000089581E00E94920C089580E00E94920CFC
:1019700008956FEF7FEF90E080E00E94A723089525
:1019800090E080E00E94732321E0863E9E4F09F0A4
:1019900020E0822F089582E090E00E946B2308955A
:1019A00083E090E00E946B23089584E090E00E9421
:1019B00073230895BC0184E090E00E94A72308955A
:1019C000AB01BC018FE090E00E949B230895AB0126
:1019D000BC0183E190E00E949B23089560E070E0E9
:1019E000CB010E94E70C089560E070E0CB010E94FB
:1019F000E00C0E94EE0C0895A8E0B0E0E2E0FDE00B
:101A00000C942E2366EE7EEF90E080E00E94A723E8
:101A100060E082E090E00E94892360E083E090E053
:101A20000E94892310926B0110926A0160E074E1B8
:101A300084E090E00E94A72360E086E090E00E94AE
:101A400089236FEF87E090E00E94892340E050E017
:101A5000BA0188E090E00E949B2360E084E290E07D
:101A60000E94892360E087E190E00E94892360E082
:101A70008CE090E00E94892360E08DE090E00E947D
:101A8000892319821A821B821C821D821E821F8258
:101A9000188648E050E068E170E0CE0101960E94AF
:101AA000792340E050E0BA0180E290E00E949B235D
:101AB0000E94F40C2896E2E00C944A230E94FC0C4D
:101AC0000895682F8EE090E00E9489230895A6E093
:101AD000B0E0EDE6FDE00C942C230E940E1C8C017E
:101AE0008091C2019091C3018017910781F0198202
:101AF0001A820E940E1C682F49815A81792F80E03A
:101B000090E00E9468041093C3010093C2012696DE
:101B1000E4E00C9448230E9460106093D20170931B
:101B2000D3018093D4019093D5016093CE0170933B
:101B3000CF018093D0019093D10108950895089525
:101B40000E949F0D089508950E94A30D089581E0BD
:101B500008958AE790E10E94EB1A0E949E0D0E9470
:101B6000A00D08950E9446120895089508950E94B8
:101B7000B50D0E94B60D08950E947D100E943C0490
:101B800008950E94051C0E943A100E9461120E9452
:101B9000A7110E94BC0D0E94571480E00E94D5142A
:101BA0000E946B120E94A40D0895A6E0B0E0EBED38
:101BB000FDE00C9424230E94A70DC82E811110C0B3
:101BC0000E94670DC12C0E9446120E945D16C11032
:101BD0000E9438150E944F042696ECE00C94402396
:101BE0000E94CA1184ECA82E81E0B82E750110E085
:101BF000F70101917F01812F0E94A3101F5F1A300E
:101C000009F441C00817A1F38091D60181FD0E941B
:101C1000A9100E94B20D982E10E088248394812F81
:101C20000E94A310082FF50181915F01081729F187
:101C3000F12CEE24E394D02ED8268D2D8E21A9F000
:101C4000992099F0F9821A830E940E1C9C838B8341
:101C50008D8291E0802F8E2109F490E049815A8194
:101C60006B817C818D810E946804F394EE0CF6E018
:101C7000FF12E3CFF501319700831F5F1A3079F629
:101C80000E948B0DA0CF0813BFCF9ACF1F93CF9385
:101C9000DF930E94550FEC01C11582E5D80708F0CB
:101CA0003FC0C11590E5D90708F0C2C0C83ED105B4
:101CB000C0F4C03ED10580F4C53AD10548F4C43023
:101CC000D10550F4C130D10539F0D0E0C0E004C0F6
:101CD000CD3CD105D0F3D065CE01DF91CF911F91DE
:101CE0000895C11580E4D80708F053C0C11590E2EB
:101CF000D90708F0B7C0C11581E0D80730F38D2FA0
:101D00000E94F70F182FCE0199270E94550FC12F5F
:101D1000D0E0DC2FCC27CC27DF71C82BD92BDCCF30
:101D2000C03892E5D907A8F4C03682E5D80708F094
:101D300063C0C03492E5D90708F049C0C03282E5DB
:101D4000D80788F1CF71D0E0DC2FCC27C16FD06AE3
:101D5000C3CFC03C92E5D90780F48C2F8F71C03A75
:101D6000D24508F45EC00E94F70FC82FD0E0DC2FE8
:101D7000CC27CC27DF71D062AFCFC03E82E5D80739
:101D800008F0A3CFDC2FCC27CC27DF71C06FD06A3F
:101D9000A3CFCE0199270E94550FCC27DF70C82B07
:101DA000D92BD06A99CF2C2F2695269590E2299F82
:101DB000900111248C2F8370C1E0D0E002C0CC0FC1
:101DC000DD1F8A95E2F7C22BD32BDD6885CF2C2F40
:101DD00026952695277080E2289F900111248C2F4C
:101DE0008370C1E0D0E002C0CC0FDD1F8A95E2F71E
:101DF000C22BD32BDC6870CF2C2F2695269527700D
:101E000090E2299F900111248C2F8370C1E0D0E0D3
:101E100002C0CC0FDD1F8A95E2F7C22BD32BDA6804
:101E20005BCFC82FD0E0DC2FCC27C46FD06A54CF53
:101E30008C2F8F710E94F70F55E0D695C7955A9554
:101E4000E1F7CF70D0E0DC2FCC27282F30E084FFE3
:101E500005C044E0220F331F4A95E1F7C22BD32B74
:101E6000D0693ACF8D2F8F710E94F70F182FCE01B6
:101E700099270E94550FC12FD0E0DC2FCC27CC270B
:101E8000DF71C82BD92B77CF462F7A3030F46630EC
:101E900020F4672F0E944903089590E080E00895A0
:101EA0000E94440F0E94460E089582389105B9F1B0
:101EB000B0F48133910509F47DC048F4893291056D
:101EC00009F46DC08A32910509F47BC00895853309
:101ED000910509F45FC08933910509F10895833EA6
:101EE0009105D9F138F4803E910529F1823E9105A2
:101EF00079F10895863E9105D9F1873E910509F45F
:101F00003EC0843E910541F52091390221FF24C055
:101F10008091380284FD19C087EE90E008952091E9
:101F20003802237009F05AC02091390223FF14C0EF
:101F300089E290E008952091380220FD38C0309168
:101F4000390230FF09C024FF43C090E080E00895CB
:101F50002091380222FDF7CF08952091380222FD0A
:101F60003AC03091390230FD39C024FFF5CFEDCFB2
:101F70002091380223FFF0CF24FDE7CFCDCF209171
:101F8000380223FD2EC03091390231FFEECF84EEAE
:101F900090E008952091380225FFDECFC9CF20912F
:101FA000380225FD21C02091390223FFD5CF89E3D6
:101FB00090E0D2CF2091380226FFCECF8AE290E087
:101FC00008952091380226FFC7CF81E390E008955D
:101FD00083EE90E0089582EE90E0089580EE90E028
:101FE000089586EE90E0089585E390E0089590913D
:101FF000380292FF06C0282F28712830F9F4877F15
:10200000846093FF06C0282F28712831F1F4877E61
:1020100084612091390220FF06C0382F3871383092
:10202000D9F4877F816021FF06C0282F28712831CD
:10203000D1F4877E816194FD877E0895282F2471D5
:102040002430F9F68B7F8860DCCF282F247124316F
:1020500001F78B7E8861DDCF382F3171313019F770
:102060008E7F8860E0CF282F2171213121F78E7E6D
:102070008861E1CF1092340210923502109236023C
:10208000109237020895CF92DF92EF92FF926B0188
:102090007C010E94461281110EC00E941A1CC61AB1
:1020A000D70AE80AF90AC0923402D0923502E092C7
:1020B0003602F0923702FF90EF90DF90CF900895B4
:1020C0000F931F930E944612882329F00E941A1C26
:1020D0001F910F9108950E941A1C009134021091D3
:1020E00035022091360230913702600F711F821F36
:1020F000931FEECF80E0089508950E94C00C8111D7
:1021000002C00E945E0D0E94CB0C8093D6010E94FB
:10211000D50C90933902809338020E947C100E9463
:10212000D00C90E00E94790780916801909169013C
:102130000E949A07089508950E949B10089508959B
:102140000E949F100895E82FF0E0EB5BFD4F808127
:102150000895089580EA8A95F1F7089500C00895DA
:102160000E94AA10089508950E94B3100895A5E052
:10217000B0E0EDEBF0E10C942A230E944612F82E19
:1021800060914F02882309F440C085E0E82E8E015B
:102190000F5F1F4FF8018E2D11928A95E9F7862F58
:1021A00090E0B8018B5B9D4F0E9479128823B9F0B3
:1021B00080913A0290E045E050E0B8018B5B9D4F82
:1021C0000E94552321E02093D701892B91F4F12C13
:1021D0000E94A0108F2D2596E6E00C944623809156
:1021E000D7018823A1F3F8011192EA94E9F710923C
:1021F000D701A0913A02B0E0AB5BBD4F85E0F8019A
:1022000001900D928A95E1F7E3CF70E06B5B7D4F13
:1022100080913A0290E08B5B9D4F0E9400130E94D8
:10222000B410D8CFF894E82FE295EF70F0E031A128
:10223000282F2F7081E090E001C0880F2A95EAF7DF
:10224000982F9095932391A392A1892B82A37894A0
:1022500008950F931F93CF93DF93C1E3D1E089914A
:102260008F3F11F00E94121181E0C633D807B9F7F1
:10227000CBE2D1E001E311E089918F3F11F00E94A0
:1022800012110C171D07C1F7DF91CF911F910F910C
:102290000895B0E0A0E0EFE4F1E10C942823EC0114
:1022A000D62E062F10E0C8018F5C9E4F7C01FC01EA
:1022B00080818F3F09F444C0F894E82FE295EF70D5
:1022C000F0E091A18F7021E030E001C0220F8A95EB
:1022D000EAF7892F822B81A382A12095282322A3AC
:1022E00078940E94AE10EBE2F1E031E0C12C219134
:1022F0002F3F59F1A22FA295AF70B0E090968C912C
:1023000090E02F7002C0959587952A95E2F780FDA1
:102310001CC0832FC82A330F81E0E133F80739F757
:10232000F70180818F3F11F00E94121161E0C1100E
:1023300001C060E08D2D0E94B010C00FD11FC88277
:10234000CDB7DEB7E8E00C94442380E0E3CF809182
:1023500002018091020195E0811190E090934F027B
:1023600085E0891B80933A020E9429118AE0E5E406
:10237000F2E0DF01982F1D929A95E9F7EBE3F2E086
:10238000DF011D928A95E9F785E00E9408120E94FC
:102390009C100895AAE0B0E0E0EDF1E10C942B234D
:1023A0008E010F5F1F4F8AE0F80111928A95E9F7BD
:1023B000F12C6F2DC8010E944911F394F5E0FF1232
:1023C000F8CF4AE050E0B8018BE392E00E94552339
:1023D00021E0009709F420E0892B41F08AE0F80120
:1023E000ABE3B2E001900D928A95E1F760914F0264
:1023F00070E06B5B7D4F45E08BE392E00E94091239
:10240000182F0E94B710812B2A96E5E00C944723E1
:102410000895CF92DF92EF92FF920F931F93CF9385
:102420006C017B01042F222349F081E08093DA01C3
:102430000E940E1C9093D9018093D801C091DA01BB
:10244000C1110AC0C0E08C2FCF911F910F91FF9056
:10245000EF90DF90CF9008958091D8019091D901AD
:102460000E94261C059770F310E0A801B601C70171
:102470000E945523892B41F0A801B601C7010E9493
:1024800062231092DA01DFCFC0E0FBCF8091DD0143
:10249000811107C00E94F722882351F081E08093C8
:1024A000DD0181E09091DD01913009F080E0089537
:1024B00082E08093DD010E94F222F3CF0E94461257
:1024C00008950E945E12809302010E9446128111BB
:1024D0000E94AF1208950E944612811102C00E940C
:1024E000B212089581E09091DE019A3008F080E008
:1024F00008950F931F93CF93DF93EC018B0180918D
:10250000DE018A30B8F4B801CE010E94FD12C82F56
:10251000811122C08091DE018F3FB9F40E940E1C10
:102520009093DC018093DB018C2FDF91CF911F9181
:102530000F9108958091DB019091DC010E94261C8F
:10254000843F914000F7C0E0EFCF8F5F8093DE01C2
:102550008A3020F7C1E0E8CF1092DE01E5CF0E947B
:10256000891908950E948C190895B0E0A0E0EBEB62
:10257000F2E10C9429237901C82F880FDD0B411556
:102580005105A9F0FE0193E0EE0FFF1F9A95E1F7C8
:10259000ED5FFE4F8181928181529E4F208130E01C
:1025A0004217530708F49A01A9010E946223CE0141
:1025B0000E94751AD82E8823D1F001151105B9F0A3
:1025C00083E0CC0FDD1F8A95E1F7FE01ED5FFE4F42
:1025D000438150E00417150708F4A801CD5FDE4FD2
:1025E0006C817D8161527E4FC7010E9462238D2DD7
:1025F000CDB7DEB7E7E00C9445230E94EF130895B2
:102600000E9406140895A4E0B0E0E9E0F3E10C9420
:102610002C236091F6017091F7018091F80190915F
:10262000F9010E94351C11E06436710581059105A0
:1026300018F10E9460106E5F7F4F8F4F9F4F69832C
:102640007A838B839C8310E000E030E020E044E05C
:1026500050E0BE016F5F7F4F82E00E94B512182FDD
:10266000882351F00E941A1C6093F6017093F701C1
:102670008093F8019093F901812F2496E4E00C9463
:102680004823B0E0A0E0E7E4F3E10C9426237C01CA
:102690005B016A010E94721201E010E0882311F0D0
:1026A0000AE010E0C1E0D0E0B501C701F6010995EC
:1026B000811104C021960C171D072CF4CDB7DEB78D
:1026C000EAE00C944223CC9F9001CD9F300D300D59
:1026D000112490E080E045E34A95F1F7000001966F
:1026E00082179307C1F7E0CFA6E0B0E0EAE7F3E195
:1026F0000C9426237B01C0903601D090370101E075
:1027000010E09E012A5F3F4F50E040E070E060E043
:1027100080E00E94B512182F882309F448C05601A2
:102720008FEFA81AB80A6091F2017091F3018091BD
:10273000F4019091F5010E94351C64367105810504
:10274000910568F105E010E09E012F5F3F4F50E0DA
:1027500040E070E060E081E00E94B512D82E65E0B4
:1027600070E0C5010E94581411E09E81981310E09A
:102770001D2141F10E941A1C6093F2017093F30134
:102780008093F4019093F50185E0FE013196ADEE62
:10279000B1E001900D928A95E1F711E013C065E078
:1027A00070E0C5010E9458149E818913CBCF85E04B
:1027B000F6013196DE01119601900D928A95E1F7AE
:1027C0001111E2CF85E0EDEEF1E0D70101900D921D
:1027D0008A95E1F7812F2696EAE00C9442230F9325
:1027E0001F93CF93DF93EC018B0144E753E10E94E9
:1027F0004113882331F043E053E1B801CE010E9438
:102800004113DF91CF911F910F9108950F931F9363
:10281000CF93DF93C0913601D0913701CE0101965D
:1028200025E0FB01DC0101900D922A95E1F765E0BE
:1028300070E00E94581488836E817F818885998515
:102840000091E9011091EA012091EB013091EC0136
:10285000601771078207930751F06093E901709345
:10286000EA018093EB019093EC010E944310DF9109
:10287000CF911F910F9108950E94DA1D0E94C10D02
:102880000E94E71D08950E94EC1D0E94D50D0E9434
:10289000061E08950E94A71B0E94C01D0E94A90D3C
:1028A0000E943C140E9443140E94B70DFBCF089570
:1028B000FC01680F791F8FEF91E3E617F70709F422
:1028C00008952191822728E030E087FF06C0880F15
:1028D000892721503109C9F7F0CF880FFACFAB0112
:1028E00024E630E0BC0188E70E94E31821E0892B50
:1028F00009F020E0822F0895B0E0A0E0E2E8F4E1E2
:102900000C9428236C017B0164E670E088E70E9448
:1029100049188C01E601EC0CFD1CCE15DF0561F4B5
:102920000E942B1981E00115110509F080E0CDB757
:10293000DEB7E8E00C94442317FDF2CFFE0184914A
:1029400064E670E00E94B5188C012196E6CF0F93E3
:102950001F939B0104E610E0AC0160E488E70E944D
:10296000041921E0892B09F020E0822F1F910F919B
:1029700008950E944318089508950E94BC14089574
:10298000E0E5F2E080E092E0DF019C011D92215041
:102990003040E1F7F0935704E09356048FEF9FEF38
:1029A0009093200280931F020895CF930E94BC143D
:1029B0000E94BD1480931B0280FD11C080E88093AB
:1029C0001A020E94B9146BE070E087E795E00E945C
:1029D0007C14811106C0C0E08C2FCF91089580E255
:1029E000EECF80911B0265E070E081FD27C082E799
:1029F00095E00E947C14882371F36DE070E080E61E
:102A000095E00E947C14C82F882329F30E941A1C89
:102A1000605A75418F4F9F4F6093520470935304D7
:102A200080935404909355040E94C01481E08093D5
:102A30001E0280931D0210921C02CECF8DE695E0FF
:102A4000D8CF20911A0236E0839FC0011124629FE3
:102A5000800D911D1124811522E0920714F090E061
:102A600080E0805B9D4F90935704809356040895B7
:102A700080911E02811103C080911D0208950E9461
:102A80001A1C605A75418F4F9F4F60935204709388
:102A90005304809354049093550480911D02811136
:102AA000EBCF62E070E08EE595E00E947C14882315
:102AB00019F381E080931D02DFCFB0E0A0E0E3E6F0
:102AC000F5E10C94222380911F0290912002892B22
:102AD00009F4B6C080911E02882309F4B1C0809128
:102AE0001C028111ADC00E94381520911F02309147
:102AF00020022115310509F4A3C090E041E050E027
:102B0000092F10E0EA01092E02C0CC0FDD1F0A9444
:102B1000E2F7BE0162237323672B11F49F5FF0CFAE
:102B200080911B0280FF91C0990F990F990F90938C
:102B30001D0110922001995F90931E0183E0809304
:102B4000210167E070E08BE191E00E946F1488231F
:102B500009F476C0980145E0220F331F4A95E1F74A
:102B600080911B0280FF83C0EAEFF1E080E2DF0189
:102B70001D928A95E9F70CE311E088E3E82E81E0E5
:102B8000F82E97E0992E88248394D801ED918D0139
:102B9000D7016D917D01620F732F711D605B7D4FB9
:102BA000F0E0E650FE4F50E040E0792C741AA82C7B
:102BB000042E01C0AA0C0A94EAF76B0180E0D6014A
:102BC0009D916D019A21A72DA81BA770BA2E0A2EE0
:102BD000000CBB0B692E01C0660CBA94EAF7B62C48
:102BE000B195A195B109A770BB2701C09695AA958B
:102BF000EAF7A62DA92B90819A2B90838F5F8830BE
:102C0000F1F64F5F5F4F31964830510571F681E024
:102C10000034180709F0B9CF60E270E08AEF91E064
:102C20000E94A714882361F0C095D09580911F025F
:102C300090912002C823D923D0932002C0931F0271
:102C4000CDB7DEB7EEE00C943E239295990F9076C7
:102C500090931D01980136952795369527952093D9
:102C60002001915E90931E01209321016ACF60E2C2
:102C700070E0C901805B9D4FD3CF80911D02909180
:102C80001E02911103C091E089270895882369F0FD
:102C900062E070E08CE595E00E947C14811103C035
:102CA00080911D02089510921D0280911D02EBCFAC
:102CB00081E008950E94581608950F931F93809104
:102CC0001E02882379F180915004909151040E9452
:102CD000261CC29760F00E940E1C909351048093B2
:102CE000500460E080E00E9421150E945A160E9464
:102CF0005D1580911D028823A9F00E941A1C009185
:102D00005204109153042091540430915504601BD7
:102D1000710B820B930B6F3F7F4F8F4F9F4710F4C8
:102D20000E943D161F910F910895CF93DF93EC0100
:102D3000FB018581882309F4D2C09E0130572332DC
:102D4000310508F0B2C00E94D50C909339028093EF
:102D50003802FE01E150F047E232F10520F4E5537C
:102D6000FC4D0C94182380913802816080933802C6
:102D700093C0809139028860809339028DC0809120
:102D800038028260F3CF809138028460EFCF809167
:102D900038028860EBCF809139028160EDCF80915D
:102DA00039028260E9CF809138028061DFCF809163
:102DB00038028062DBCF809138028064D7CF0E94D6
:102DC0002C07809138028068D1CF809138028C60C6
:102DD000CDCF809139028360CFCF809138028E7F32
:102DE000C5CF80913902877FC7CF809138028D7F10
:102DF000BDCF809138028B7FB9CF80913802877F19
:102E0000B5CF809139028E7FB7CF809139028D7F07
:102E1000B3CF809138028F7EA9CF809138028F7D09
:102E2000A5CF809138028F7BA1CF0E942C07809183
:102E300038028F779BCF80913802837F97CF809124
:102E400039028C7F99CF8091380282FB992790F9C3
:102E500021E0922790FB82F990FB83F987CF809144
:102E60003902982F909591708E7F892B90FB81F974
:102E700083CF90913802892F8F7B96FF806476CF25
:102E80000E942C0790913802892F97FB87F9805870
:102E90006DCF81E00E94610D8091380290913902DE
:102EA0000E94DA0C0E942C0780E0DF91CF910895F8
:102EB00080E0F0CF90913802892F8F7E94FF80615F
:102EC00055CF90913802892F8E7F90FF81604ECF31
:102ED00090913902892F877F93FF88604DCF81E0E1
:102EE000E4CFCF93DF93EB0186319C4711F50E942D
:102EF000BF0B9D81992399F08A7A91E009F490E0C3
:102F000090932102811109C089E20E94970B0E94CF
:102F1000180C80E0DF91CF91089585E3F6CF809182
:102F20002102811104C089E20E949F0BF0CF85E34A
:102F3000FBCF81E0EFCF0F931F93CF93DF93C42F8D
:102F4000D22FFC0185818823C9F0409324020E947E
:102F50000E1C909323028093220280E28C0F883013
:102F600040F4C77081E001C0880FCA95EAF70E945B
:102F70000505DF91CF911F910F91089510912402C3
:102F8000141332C080912202909123020E94261CC9
:102F9000883C910548F5C0E2CD0F1D17B9F080E2DD
:102FA000810F883040F4177081E001C0880F1A95B6
:102FB000EAF70E940C05C83048F481E09D2F977015
:102FC00001C0880F9A95EAF70E940505802F0E949C
:102FD000FC04C83070F6D77081E001C0880FDA9524
:102FE000EAF70E940C05C5CF80E28C0F883008F606
:102FF000C77081E001C0880FCA95EAF7F2CF0F933E
:10300000DB0188519C4787309105A0F5FC01E35115
:10301000FC4D0C94182306E221EE41EE6AE17CE7B8
:10302000CD010E949B1780E00F91089507E225EEE5
:1030300045EE6BE17CE7F4CF06E221EE40EE68E17D
:103040007CE7EECF07E225EE44EE69E17CE7E8CFCE
:1030500006E221EE42EE6CE17CE7E2CF07E225EEEC
:1030600046EE6DE17CE7DCCF08E221E045EE6EE163
:103070007CE7D6CF15968C91882319F01092240204
:10308000D3CF81E0D1CF1092B9008CE08093B8000B
:103090000895B0E0A0E0EFE4F8E10C942523B82E09
:1030A000EB010E940E1C6C01EE24E394F12CC43160
:1030B000D10560F025E0E22EF12CCF3FDC0731F0A6
:1030C000CE0164E170E00E9404237B0184EAA82E13
:1030D00094E8992E1092BC00A092BC000E940E1C95
:1030E0008C018091BC0087FF0DC08091B900887F62
:1030F0008830F9F08091B900887F8031D1F00FEFEE
:103100001FEF08C0C8010E94261CE816F90648F700
:103110000EEF1FEFCF3FDC07E9F2C6010E94261C2D
:10312000C817D907B8F6C801CDB7DEB7EBE00C94E5
:103130004123B092BB009092BC000E940E1C8C01F7
:103140008091BC0087FF0AC08091B900887F8831D8
:1031500011F08034A1F610E000E0E5CFC8010E9434
:10316000261CE816F90660F7D3CF0F931F93CF9371
:10317000DF93EB018093BB0084E88093BC000E9446
:103180000E1C8C018091BC0087FF11C02091B900FA
:10319000287F81E090E0283211F490E080E0919562
:1031A00081959109DF91CF911F910F910895CF3FA4
:1031B000DC0741F3C8010E94261CC817D90710F785
:1031C0008EEF9FEFEFCFB0E0A0E0E9EEF8E10C94D6
:1031D00028236B018A017901B9010E944918E6018F
:1031E0000C0D1D1DC017D10711F097FF08C024E971
:1031F0002093BC00CDB7DEB7E8E00C944423B701C0
:1032000089910E94B518EECFB0E0A0E0EAE0F9E1C4
:103210000C942823C62F6A017901B8010E9449182D
:1032200097FD0CC0B8018C2F0E94B518E601EC0C7C
:10323000FD1CCE15DF0511F097FF08C024E920938F
:10324000BC00CDB7DEB7E8E00C944423B801899107
:103250000E94B518EECF84E98093BC0008958EE1FA
:103260004A9B02C08150E1F74A9BFECF08955A98CD
:1032700080E28A95F1F75A9A0895FC013BE03A956D
:10328000F1F798E020E080E031E040E14A95F1F785
:10329000880F4A9B02C08160232742E04A95F1F7DC
:1032A000000040E14A95F1F7915079F790E19A9545
:1032B000F1F799B132E03A95F1F7000040E14A9513
:1032C000F1F792FB992790F992272081920F908332
:1032D0000895A1E0B0E0EFE6F9E10C942A23198209
:1032E0008C017C01E60EF11C0E151F0541F481E0F6
:1032F0009981911180E02196E6E00C9446230E948A
:103300002F19CE0101960E943D19F80181938F017A
:10331000EBCF529A5A9A089552985A9AEA9AE9E645
:10332000F0E080818F7C808308956150770B91E07D
:1033300001C0990F6A95EAF720E031E0911108C0C9
:10334000222391F05A9A80E28A95F1F75A980895CB
:10335000492F482339F05A9A232740E24A95F1F73A
:103360009695ECCF5A98F9CF5A98EDCFFF920F93DC
:103370001F93CF93DF93EC018C01060F111DC01733
:10338000D10729F4CDB7DEB7E5E00C944723F990D7
:103390000E94371968E08F2D0E949519F0CF1F9277
:1033A0000F920FB60F9211240F931F932F933F93F9
:1033B0004F935F936F937F938F939F93AF93BF933D
:1033C000EF93FF93CF93DF930F92CDB7DEB71982C0
:1033D0000E942F19CE0101960E943D19082F0695D3
:1033E00006950695282F22952570902F9570290F08
:1033F000922F937026952695920F98279770898122
:10340000982B09F05CC0043008F059C080E18A951F
:10341000F1F75A9A529A82E08A95F1F700C05A98C9
:1034200088E0089F80011124D801AD5FBE4F169639
:10343000ED91FC9117973097A9F06091360170914A
:10344000370114962D913C911597260F371F119631
:103450008D919C911297680F791F13964C91139739
:103460008C910995F801ED5FFE4F6381662351F061
:10347000209136013091370184819581820F931F0D
:103480000E94B6190E94371980E18A95F1F75A987F
:1034900052985A9A80E18A95F1F7F801ED5FFE4F54
:1034A0006081662351F0209136013091370181818E
:1034B0009281820F931F0E9469190E942F190F9009
:1034C000DF91CF91FF91EF91BF91AF919F918F913C
:1034D0007F916F915F914F913F912F911F910F912C
:1034E0000F900FBE0F901F9018950F931F93CF93BF
:1034F000DF93EC0104970CF04CC0F894529A5A9860
:1035000085E08A95F1F700009C2F969595708C2F99
:103510008570980F892F83709695969523E0CC0F30
:10352000DD1F2A95E1F7980F8E01092B0E943719AC
:1035300000C068E0802F0E94951980E18A95F1F71C
:1035400052985A9A4A9B1EC087E090E04A991CC044
:10355000FE01ED5FFE4F63816623F9F02091360195
:103560003091370184819581820F931F0E946919E0
:10357000811113C0529A5A9A7894DF91CF911F917A
:103580000F91089500C0DECF019729F4529A5A9AFC
:10359000789480E0F2CF00C0D9CF0E942F1980E24A
:1035A0008A95F1F75A98529A80E18A95F1F7CD5FA2
:1035B000DE4F6881662351F020913601309137014A
:1035C00089819A81820F931F0E94B6190E94371930
:1035D000789481E0D2CF9093410180934001089587
:1035E000909327028093260208950E94461281112B
:1035F00003C0809125020895E0912602F0912702F0
:10360000309729F00190F081E02D0995089580E030
:103610000895E0912602F0912702309721F0028070
:10362000F381E02D099508959C012E5F3F4FAC0179
:10363000485F5F4F80E02417350709F40895F901CA
:1036400091919F019923B9F38F5FF5CF662349F0DC
:10365000FC01329608962191261729F0E817F90700
:10366000D1F780E0089581E008959C01FC01329635
:103670009FEF80E04191461751F09F3F19F44111AF
:1036800001C0982F8F5F8630A9F79F3F09F40895F6
:10369000290F311D97FD3A95F90162830895FC01C8
:1036A000329608962191261303C0DF0111971C92D0
:1036B000E817F907B9F708950E94351B08950E948D
:1036C0004F1B0895029626E0FC0111922A95E9F716
:1036D000089508950E94691B0895811106C081E034
:1036E000809328020E946A1B089582E0F9CF83E04C
:1036F000809328020E946A1B08950E946D1B089502
:1037000081E0809328020E946A1B08950E94801B1A
:103710000895089508950E948A1B089508950895B4
:103720000E94891B0895CF930E948E1B0E94CA118C
:103730000E948F1BC0E08C2F0E94A310811105C036
:10374000CF5FCA30C1F7CF91089581E0FCCF85B734
:10375000806885BF85B7806885BF08951F921FB6B2
:103760001F9211248F939F93AF93BF93809129024F
:10377000811113C08091580490915904A0915A046A
:10378000B0915B044196A11DB11D809358049093A4
:103790005904A0935A04B0935B04BF91AF919F91D9
:1037A0008F911F901FBE1F901895809160048430E8
:1037B00031F10E941D041092290288E190E020E47A
:1037C0000FB6F894A895809360000FBE2093600018
:1037D00083B7817F846083BF83B7816083BF789420
:1037E000889583B78E7F83BF0FB6F894A895809194
:1037F0006000886180936000109260000FBE0895A1
:103800000E942C070E942404089582E084BD93E066
:1038100095BD9AEF97BD80936E0008952FB7F894E9
:103820008091580490915904A0915A04B0915B047E
:103830002FBF08952FB7F8946091580470915904E0
:1038400080915A0490915B042FBF08959C014FB75B
:10385000F8948091580490915904A0915A04B09121
:103860005B044FBF821B930B0895CF92DF92EF92C0
:10387000FF922FB7F894C0905804D0905904E0906C
:103880005A04F0905B042FBFA7019601261B370B4B
:10389000480B590BCA01B901FF90EF90DF90CF9010
:1038A000089578941F921FB61F9211248F939F93AF
:1038B000AF93BF938091580490915904A0915A04FA
:1038C000B0915B040196A11DB11D809358049093A3
:1038D0005904A0935A04B0935B04BF91AF919F9198
:1038E0008F911F901FBE1F90189587E797E79093C1
:1038F00001088093000888E19AE00FB6F894A89533
:10390000809360000FBE90936000FFCF88E19AE043
:103910000FB6F894A895809360000FBE9093600056
:10392000FFCF809132020895089508959B01BA0156
:10393000909160049430E9F48F708093E9009FEFD8
:103940008091E800915085FD06C085ED8A95F1F7DC
:1039500000009111F5CF8091E80085FF0AC050E08A
:1039600040E0C9010E946B1E8091E8008E77809331
:10397000E8000895CF93DF93EC0148E050E0BC01EC
:1039800081E00E94961C88E0FE01AAE2B2E001906C
:103990000D928A95E1F7DF91CF91089580915F04B0
:1039A000811109C00E94FB1F0E9458208091E200F3
:1039B00084608093E200089510925F0408950E944D
:1039C000801B089560915C0481E0611101C080E07A
:1039D0000E94771B08959091600481E0943009F073
:1039E00080E060915C040E947D1B089542E061ECE0
:1039F00081E00E94771F9091600481E0943009F08B
:103A000080E060915C040E946D1B089580916204C7
:103A1000833009F461C030F48130D1F1823009F48F
:103A20009EC008958A3009F48AC08B3009F46FC0B3
:103A3000893009F050C080916104813209F04BC097
:103A40008091650490916604892B09F044C08091AF
:103A5000E800877F8093E8008091E80082FF37C00C
:103A60009091F3008091F200029731F48091F1007F
:103A7000813011F0863021F48091F1008093320280
:103A80008091E8008B778093E8000E94AB1F23C0F1
:103A900080916104813AF9F48091E800877F8093F6
:103AA000E8008091650490916604892B61F468E0D8
:103AB0008AE292E070E00E94BA1E8091E8008B7763
:103AC0008093E800089560E090E080E0F3CF80917B
:103AD00060048111C1CF089580916104813AD9F7C2
:103AE0008091650490916604892BA9F78091E80084
:103AF000877F8093E8008091E80080FFFCCF809171
:103B00002A018093F1008091E8008E77BCCF8091EC
:103B10006104813201F78091650490916604892BDC
:103B2000D1F68091E800877F8093E8000E94AB1F68
:103B30008091630480932A010E942C07089580914C
:103B40006104813241F68091E800877F8093E8002C
:103B50000E94AB1F8091640480933302089580918A
:103B60006104813A09F0B7CF8091E800877F8093A4
:103B7000E8008091E80080FFFCCF80913302C1CF44
:103B800084B7877F84BF0FB6F894A89580916000B2
:103B9000886180936000109260000FBE80E890E022
:103BA0000FB6F89480936100909361000FBE0E945D
:103BB000861B08950E94FB1F0E945820E2EEF0E051
:103BC00080818460808378940E94D722089582E265
:103BD00091E00E94F01A089580916004853031F4DC
:103BE00080916004853019F00E94001C08950E94A5
:103BF000D51B80915E04882399F30E94931B882330
:103C000079F30E94551E0E942C07EACF08959A016D
:103C100040916704509168040E940F1E0895492F37
:103C2000552743305105C9F058F44130510599F1F9
:103C300042305105A9F190E080E050E040E01DC025
:103C40004132510509F142325105A9F780E490E073
:103C50004CED55E0672B79F710C09927813091051D
:103C600081F0009729F0029731F7E2E8F5E002C011
:103C7000E4EAF5E0849190E0AF01F90151834083DB
:103C80000895E2E9F5E0F6CF89E090E04AEB55E0EF
:103C9000672B89F6F2CF82E190E04AEC55E0EDCF58
:103CA00082E290E048EA55E0E8CF80E189BD82E118
:103CB00089BD09B400FEFDCF8091D8008F7D80932F
:103CC000D8008091E00082608093E0008091E00065
:103CD00081FDFCCF0895AF92BF92CF92DF92FF9209
:103CE0000F931F93CF93DF936C01EB018A010E9426
:103CF000CA1FF82E811123C00115110539F0F801F2
:103D000080819181C81BD90BC80ED91EB12CA12C62
:103D10002097A9F08091E80085FD22C08091E800FD
:103D20008E778093E80001151105A1F0F8018081DC
:103D30009181A80EB91EB182A08285E0F82E8F2D48
:103D4000DF91CF911F910F91FF90DF90CF90BF90A7
:103D5000AF9008950E94CA1F8823D1F2F82EEFCFAA
:103D6000F60181916F018093F1002197FFEFAF1A67
:103D7000BF0ACECFFC01809167049091680486173A
:103D80009707A0F06115710529F49091E8009E77DE
:103D90009093E80090E06115710551F4911108C00D
:103DA0008091E80082FF34C080E00895BC01F2CF2A
:103DB000809160048823C1F18530C1F18091E800D1
:103DC00083FD30C08091E80082FDEACF8091E80059
:103DD00080FFE1CF8091F3002091F200382F611530
:103DE000710519F02830310558F091E0283031057F
:103DF00009F090E02091E8002E772093E800CBCFE7
:103E000081918093F100615071092F5F3F4FE7CF9F
:103E100080916004882341F0853041F08091E80072
:103E200083FFBECF81E0089582E0089583E0089586
:103E3000FC01809167049091680486179707A0F0B1
:103E40006115710529F48091E8008E778093E80070
:103E500090E06115710551F4911108C08091E8005E
:103E600082FF35C080E00895BC01F2CF80916004EC
:103E70008823C9F18530C9F18091E80083FD31C004
:103E80008091E80082FDEACF8091E80080FFE1CFD9
:103E90008091F3002091F200382F6115710519F01F
:103EA0002830310558F091E02830310509F090E0D4
:103EB0008091E8008E778093E800CBCF8491809347
:103EC000F1003196615071092F5F3F4FE6CF80912D
:103ED0006004882341F0853041F08091E80083FF41
:103EE000BDCF81E0089582E0089583E00895982F82
:103EF000973028F08F708093E90081E008959093C7
:103F0000E900242F762F50E0981731F07091EC00E3
:103F10002091ED005091F00021FD02C09F5FE8CF9D
:103F20003091EB003E7F3093EB003091ED003D7F10
:103F30003093ED003091EB0031603093EB007093E3
:103F4000EC002093ED005093F0002091EE0027FD4F
:103F5000E5CF80E008958091610487FF13C08091D0
:103F6000E80082FF06C08091E8008B778093E8002C
:103F700004C0809160048111F2CF089580916004A3
:103F80008823D9F38091E80080FFF8CF8091E80082
:103F90008E77ECCF2091E4003091E50095E6A90101
:103FA0002091EC00822F817020FF06C08091E800F4
:103FB00080FF06C080E008952091E80022FD1AC02D
:103FC00080916004882389F0853089F08091EB002E
:103FD00085FD0FC02091E4003091E50042175307A2
:103FE000F9F29150E1F684E0089582E0089583E0CB
:103FF000089581E008950E946A200E947220E0EEF8
:10400000F0E0808181608083E8EDF0E080818F774F
:10401000808319BCA7EDB0E08C918E7F8C9380815A
:104020008F7E808310925F0408950F931F93CF9328
:10403000DF930E946A200E947220C8EDD0E0888140
:104040008F77888388818068888388818F7D888343
:1040500019BC1092600410925C0410925E041092DD
:104060005D0400EE10E0F80180818B7F8083888101
:104070008160888342E060E080E00E94771FE1EE8B
:10408000F0E080818E7F8083E2EEF0E080818160CD
:104090008083808188608083F80180818E7F808327
:1040A000888180618883DF91CF911F910F9108955E
:1040B000E8EDF0E080818F7E8083E7EDF0E08081A5
:1040C0008160808384E082BF81E080935F040E94EE
:1040D00015200895E8EDF0E080818E7F80831092B6
:1040E000E20008951092DA001092E10008951F9204
:1040F0000F920FB60F9211242F933F934F935F931C
:104100006F937F938F939F93AF93BF93EF93FF939F
:104110008091E10082FF0BC08091E20082FF07C026
:104120008091E1008B7F8093E1000E94D6228091F4
:10413000DA0080FF19C08091D80080FF15C08091FF
:10414000DA008E7F8093DA008091D90080FF96C0DC
:1041500080E189BD82E189BD09B400FEFDCF81E027
:10416000809360040E94CE1C8091E10080FF19C002
:104170008091E20080FF15C08091E2008E7F8093E5
:10418000E2008091E20080618093E2008091D8009B
:1041900080628093D80019BC85E0809360040E94FF
:1041A000E21C8091E10084FF2BC08091E20084FF3B
:1041B00027C080E189BD82E189BD89B5982F9170C2
:1041C00080FFFBCF8091D8008F7D8093D8008091B5
:1041D000E1008F7E8093E1008091E2008F7E8093EA
:1041E000E2008091E20081608093E20080915C04B3
:1041F000882309F449C084E0809360040E94EB1C8A
:104200008091E10083FF29C08091E20083FF25C0F7
:104210008091E100877F8093E10082E080936004D9
:1042200010925C048091E1008E7F8093E100809188
:10423000E2008E7F8093E2008091E20080618093B3
:10424000E20042E060E080E00E94771F8091F00091
:1042500088608093F0000E94DF1CFF91EF91BF9176
:10426000AF919F918F917F916F915F914F913F910E
:104270002F910F900FBE0F901F90189519BC1092A0
:1042800060040E94DC1C70CF8091E30087FD93E006
:1042900090936004B3CF1F920F920FB60F92112428
:1042A0002F933F934F935F936F937F938F939F933E
:1042B000AF93BF93CF93DF93EF93FF93D091E90038
:1042C000DF708091EC00C82FC17080FDC0E81092B3
:1042D000E9008091F000877F8093F00078940E943D
:1042E0008F211092E9008091F00088608093F000A7
:1042F000CD2BCF70C093E900FF91EF91DF91CF916B
:10430000BF91AF919F918F917F916F915F914F91ED
:104310003F912F910F900FBE0F901F901895AAE21A
:10432000B0E0E5E9F1E20C942D2381E694E02091E0
:10433000F100FC012193CF01F4E089369F07B9F722
:104340000E94061D8091E80083FF1EC180916104D8
:10435000909162049A3008F017C1E92FF0E0EC5018
:10436000FC4D0C941823803899F0823809F00CC168
:10437000809165048F70873008F006C18093E90052
:104380008091EB0085FB882780F91092E90006C038
:1043900080915D0490915E04911182609091E8009B
:1043A000977F9093E8008093F1001092F100809144
:1043B000E8008E77E5C0882309F4D3C0823009F085
:1043C000E3C0809163048111D6C0809165048F7031
:1043D0002FEF280F263008F0D7C08093E9002091F6
:1043E000EB0020FFC8C0933031F48091EB00806275
:1043F0008093EB00C0C09091EB0090619093EB0034
:1044000021E030E001C0220F8A95EAF72093EA000C
:104410001092EA008091EB008860EACF8111B4C06D
:10442000109163041F778091E3008078812B809343
:10443000E3008091E800877F8093E8000E94AB1F33
:104440008091E80080FFFCCF8091E300806880933A
:10445000E30082E0111183E08093600495C08058EE
:10446000823008F091C080916304909164048C3D87
:1044700023E09207A1F583E08A838AE289834FB71C
:10448000F894DE01139620E03EE051E2E32FF0E0E5
:1044900050935700E49120FF03C0E295EF703F5F17
:1044A000EF708E2F90E0EA30C0F0C7968D939D9309
:1044B0002F5F243159F74FBF8091E800877F8093A9
:1044C000E8006AE270E0CE0101960E94BA1E809177
:1044D000E8008B778093E80057C0C096E7CF6091E3
:1044E000650470916604AE014F5F5F4F0E94071E26
:1044F000BC01892B09F448C09091E800977F909304
:10450000E80089819A810E94181FE1CF8038E1F587
:104510008091E800877F8093E80080915C0480931D
:10452000F10045CF811130C090916304923060F565
:104530008091E800877F8093E80090935C040E945C
:10454000AB1F80915C04882311F084E005C080914A
:10455000E30087FDFACF81E0809360040E94F61C9F
:1045600013C080916304813079F481E0933009F0C5
:1045700080E080935E041092E9008091E800877FDC
:104580008093E8000E94AB1F8091E80083FF0AC07F
:104590008091E800877F8093E8008091EB00806243
:1045A0008093EB00AA96E3E00C9449230895CF93FF
:1045B000809160048823A1F0C091E900CF709091B0
:1045C000EC00892F817090FD80E8C82B1092E900E3
:1045D0008091E80083FD0E948F21CF70C093E90095
:1045E000CF9108950E94FB1F109260040895E8ED9A
:1045F000F0E08081806180838AE18A95F1F700C0D4
:104600008091D90081700895AA1BBB1B51E107C09E
:10461000AA1FBB1FA617B70710F0A61BB70B881F52
:10462000991F5A95A9F780959095BC01CD010895E1
:10463000EE0FFF1F0590F491E02D09942F923F9209
:104640004F925F926F927F928F929F92AF92BF92A2
:10465000CF92DF92EF92FF920F931F93CF93DF934E
:10466000CDB7DEB7CA1BDB0B0FB6F894DEBF0FBEAB
:10467000CDBF09942A88398848885F846E847D84F8
:104680008C849B84AA84B984C884DF80EE80FD80FA
:104690000C811B81AA81B981CE0FD11D0FB6F89470
:1046A000DEBF0FBECDBFED010895FB01DC0104C0EC
:1046B0008D910190801921F441505040C8F7881B1A
:1046C000990B0895FB01DC0102C001900D9241504D
:1046D0005040D8F70895F999FECF92BD81BDF89A60
:1046E000992780B50895A8E1B0E042E050E00C942D
:1046F000AF23DC01A40FB51F4150504048F0CB015F
:10470000840F951F2E910E948A2341505040D0F76C
:104710000895262FF999FECF92BD81BDF89A019791
:1047200000B4021639F01FBA20BD0FB6F894FA9AF9
:10473000F99A0FBE08950396272F0E948A230E949C
:104740008923252F0E948A23242F0C948A230196E3
:10475000272F0E948A230C948923DC01CB01FC01C2
:10476000F999FECF06C0F2BDE1BDF89A319600B4CA
:104770000D9241505040B8F70895F894FFCF52057C
:104780005205A205A205810581058105810507065F
:10479000780687068706ED166117F516BF16C3164D
:1047A000F916C716FD160917D3165A17D7160D177F
:1047B000DB1611173917DF1615174017E5161B17EB
:1047C0002317CB160117CF160517E9161F172F173A
:1047D00049175817B916F11668171C1822180B1824
:1047E000161828182E183418B321DB21C422DB2117
:0C47F000C4220E222F22C4228622922214
:1047FC00B8010100000001000000000000000501EC
:10480C0000000004060000000000000021007F22D0
:10481C000003911CBA1C951C941C01F6F731333221
:10482C00366697C63435DF010008101818100800DA
:00000001FF
